:100000000C942A000C9434000C9434000C943400AA
:100010000C9434000C9434000C9434000C94340090
:100020000C9434000C9434000C9434000C94340080
:100030000C9434000C9434000C9434000C94340070
:100040000C9434000C9434000C9434000C94340060
:100050000C94340011241FBECFE5D4E0DEBFCDBF29
:100060000E9436000C9488010C9400000F931F939B
:1000700011BA8FEF87BB88BB0AE065E049E150E029
:10008000B6E0A9E070E11AE180B390E08F3F9105FE
:1000900011F408BB31C08E3F910511F4B8BB31C0DB
:1000A0008D3F910599F468BB20E335E7FA0131975C
:1000B000F1F721503040D1F7A8BB20E335E7FA0132
:1000C0003197F1F721503040D1F747C08C3F91056F
:1000D00099F468BB20E335E7FA013197F1F7215035
:1000E0003040D1F7B8BB20E335E7FA013197F1F79B
:1000F00021503040D1F747C08B3F910511F4A8BB88
:1001000042C08A3F910599F468BB20E43CE9FA01BA
:100110003197F1F721503040D1F7A8BB20E335E704
:10012000FA013197F1F721503040D1F750C0893FA3
:10013000910599F468BB20E43CE9FA013197F1F7A5
:1001400021503040D1F7A8BB20E335E7FA013197C1
:10015000F1F721503040D1F772C0883F910599F4F2
:1001600068BB20E335E7FA013197F1F721503040C1
:10017000D1F7A8BB20E335E7FA013197F1F7215019
:100180003040D1F75CC0873F910559F478BB2FEF21
:100190003FEFFA013197F1F721503040D1F718BB0A
:1001A0004EC0863F910599F478BB2FEF3FEFFA01DF
:1001B0003197F1F721503040D1F7B8BB20E335E754
:1001C000FA013197F1F721503040D1F768C0853FEF
:1001D0009105C9F478BB8FEF9FEFFA013197F1F7E2
:1001E0000197D9F768BB80E395E7FA013197F1F7FA
:1001F0000197D9F7B8BB80E395E7FA013197F1F79A
:100200000197D9F741CF843F9105C9F478BB8FEFAF
:100210009FEFFA013197F1F70197D9F768BB80E3B7
:1002200095E7FA013197F1F70197D9F7B8BB80E369
:1002300095E7FA013197F1F70197D9F725CF833F79
:10024000910589F478BB8FEF9FEFFA013197F1F7B1
:100250000197D9F7A8BB80E395E7FA013197F1F749
:100260000197D9F711CF823F9105C9F478BB8FEF81
:100270009FEFFA013197F1F70197D9F768BB80E357
:1002800095E7FA013197F1F70197D9F7B8BB80E309
:1002900095E7FA013197F1F70197D9F7F5CE813F4C
:1002A0009105C9F478BB8FEF9FEFFA013197F1F711
:1002B0000197D9F768BB80E395E7FA013197F1F729
:1002C0000197D9F7A8BB80E395E7FA013197F1F7D9
:1002D0000197D9F7D9CE803F910509F0D5CE78BBEB
:1002E0008FEF9FEFFA013197F1F70197D9F768BBCC
:1002F00080E395E7FA013197F1F70197D9F7A8BBA9
:1003000080E395E7FA013197F1F70197D9F7BCCE71
:04031000F894FFCF8F
:00000001FF
